:040000008A11112828
:10000800FE00030E83120313A1000408A2000A08CD
:10001800A3007F08A4008A158C2F8A111328FB01DE
:10002800FC01E601E701E801E901EA018317203054
:1000380084006A308A158C268A1183136630FD0085
:100048000F30FE004030FF00503084008A15E12652
:1000580083018A112F28CA30840050308316031375
:10006800A0000408A1001630A20020088400831311
:100078000008A300A00A2108840023088000A10A20
:10008800A20B3928AB308400831203136608800062
:10009800840A67088000840A68088000840A69085E
:1000A8008000840A6A088000B030840020308316FB
:1000B8000313A0000408A1001A30A200200884003D
:1000C80083170008A300A00A2108840083132308CB
:1000D8008000A10AA20B62288A15ED268A118A15CA
:1000E8002A278A118A11FC278A118A156E278A11F4
:1000F8008A1594268A118A1585268A11EF30831667
:100108000313A0002008C6005530A0002008C8002E
:10011800B0308A11DA278A11B0308A1153258A1132
:100128008A159E268A11B0308A11DC258A1183121D
:100138000313310883160313A60083120313300830
:1001480083160313A500B0308A11F2238A11831293
:100158000313330883160313AA0083120313320808
:1001680083160313A900831203133108831603139C
:10017800A80083120313300883160313A700CA309C
:100188008A11D2268A11CA308A11C0228A1183168E
:1001980003135308A000200883120317BA0083161C
:1001A80003135208A000200883120317BB0083160C
:1001B80003135508A000200883120317BC008316F8
:1001C80003135408A000200883120317BD0003304E
:1001D80083160313A2000830A1007830A000A00BFA
:1001E800F328A10BF328A20BF32828308316031356
:1001F800A0002008CA006A30A0002008CB00F43014
:10020800A0002008CC008F30A0002008CD000630C8
:10021800A0002008CE00CF01D0013930A00020086E
:10022800D100D601D701D801D901DA01DB01DC01FF
:10023800DD01DE01CA308A11D2268A11CA308A113C
:10024800C0228A11831603135308A00020088312C2
:100258000317BE00831603135208A0002008831258
:100268000317BF00831603135508A0002008831244
:100278000317C000831603135408A0002008831234
:100288000317C100033083160313A2000830A1002E
:100298007830A000A00B4E29A10B4E29A20B4E29A5
:1002A800283083160313A0002008CA006930A00074
:1002B8002008CB005530A0002008CC005D30A000FD
:1002C8002008CD000530A0002008CE00CF01D001C5
:1002D8007C30A0002008D100D601D701D801D9016F
:1002E800DA01DB01DC01DD01DE01AB308A11C62455
:1002F8008A11831603132D08A00020088312031700
:10030800C200831603132E08A000200883120317C7
:10031800C300831603132B08A000200883120317B9
:10032800C400831603132C08A000200883120317A7
:10033800C500831603133108A00020088312031791
:10034800C600831603133008A00020088312031781
:10035800C700831603133308A0002008831203176D
:10036800C800831603133208A0002008831203175D
:10037800C900831603133508A00020088312031749
:10038800CA00831603133408A00020088312031739
:10039800CB00831603133708A00020088312031725
:1003A800CC00831603133608A00020088312031715
:1003B800CD00831603133908A00020088312031701
:1003C800CE00831603133808A000200883120317F1
:1003D800CF00831603133B08A000200883120317DD
:1003E800D000831603133A08A000200883120317CD
:1003F800D100831603133D08A000200883120317B9
:10040800D200831603133C08A000200883120317A8
:10041800D300831603133F08A00020088312031794
:10042800D400831603133E08A00020088312031784
:10043800D500831603134108A00020088312031770
:10044800D600831603134008A00020088312031760
:10045800D700831603134308A0002008831203174C
:10046800D800831603134208A0002008831203173C
:10047800D900831603134508A00020088312031728
:10048800DA00831603134408A00020088312031718
:10049800DB00831603132608A00020088312031725
:1004A800DC00831603132508A00020088312031715
:1004B800DD00831603132708A0002808A1002908D7
:1004C800A2002A08A30018300310A30CA20CA10C48
:1004D800A00CFF3E031D682A2008A40024088312EC
:1004E8000317DE00831603132708A0002808A100BD
:1004F8002908A2002A08A30010300310A30CA20C9C
:10050800A10CA00CFF3E031D812A2008A40024088A
:1005180083120317DF00831603132708A000280897
:10052800A1002908A2002A08A30008300310A30C80
:10053800A20CA10CA00CFF3E031D9A2A2008A400BF
:10054800240883120317E000831603132708A0006A
:10055800200883120317E1000B3083160313A2004F
:100568002630A1006630A000A00BB82AA10BB82A3B
:10057800A20BB82ABF2A972883120313AD008A1545
:10058800D4278A1155308A110B278A118312031335
:10059800AC0108302C020318E52A2C082D07A90005
:1005A80029088400831300088A110B278A11013057
:1005B80083120313A9002908AC0708302C02031C76
:1005C800D12ABE308A110B278A118A1179278A11FC
:1005D80083120313A9002D080C3E840029088313F5
:1005E80080008A1179278A1183120313A9002D0824
:1005F8000D3E84002908831380008A1179278A1107
:1006080083120313A9002D080E3E840029088313C2
:1006180080008A1179278A1183120313A9002D08F3
:100628000F3E84002908831380008A1179278A11D4
:1006380083120313A9002D08103E84002908831390
:1006480080008A1179278A1183120313A9002D08C3
:10065800113E84002908831380008A1179278A11A2
:1006680083120313A9002D08123E8400290883135E
:1006780080008A1179278A1183120313A9002D0893
:10068800133E84002908831380008A1179278A1170
:1006980083120313A9002D08143E8400290883132C
:1006A80080002D08103E84000008A9002D08153E82
:1006B8008400290880002D080D3E840007300005BD
:1006C800A9002D080C3E84002908AB000008AA00E8
:1006D8000430FF002B0DAB0CAA0CFF0B6E2B2D0862
:1006E800083E84002A088000840A2B0880002D0810
:1006F8000D3E84000008F0390319972B2D08083E99
:1007080084000008A900840A0008AA00A909AA0907
:10071800A90A0319AA0A2D08083E8400290880009E
:10072800840A2A0880002D080C3E840000080F392E
:10073800A900AA012D080A3E840029088000840A1D
:100748002A0880002D080A3E84000008A900840AAF
:100758000008AA00A91DB92B2D080A3E84000530FF
:100768008000840A0030800008002D080A3E8400BA
:100778000008A900840A0008AA00291DCC2B2D080E
:100788000A3E840019308000840A00308000080086
:100798002D080A3E84000008A900840A0008AA005F
:1007A800A91CDF2B2D080A3E84007D308000840AB6
:1007B8000030800008002D080A3E84000008A900C7
:1007C800840A0008AA00291C08002D080A3E840093
:1007D80071308000840A02308000080083120313FD
:1007E800C3000030BF000030BE000030BD00003044
:1007F800BC00F430B4003408A9004308193E840052
:1008080083130008B50005300310B50DFF3E031D26
:10081800082C0310350D3438B6003608AA004308F2
:10082800163E84000008B7000310370C8A15AD2760
:100838008A11083083120313B500C930B400B40B11
:10084800232CB50B232C282CF63083120313B40069
:100858003408A900AA01AA0A4030B5003508AB003F
:100868004308163E840083130008B6000310360CB4
:100878008A118A268A11F73083120313B4003408C8
:10088800A900AA01AA0A4130B5003508AB004308FF
:10089800163E840083130008B6000310360C8A1134
:1008A8008A268A11F83083120313B4003408A90089
:1008B800AA01AA0A4230B5003508AB004308163E23
:1008C800840083130008B6000310360C8A118A26A8
:1008D8008A11831203134108B400B501B601B701A8
:1008E80008300310B40DB50DB60DB70DFF3E031D4E
:1008F800752C4008B800B901BA01BB0110300310CB
:10090800B80DB90DBA0DBB0DFF3E031D832C34087D
:100918003804BC0035083904BD0036083A04BE0066
:1009280037083B04BF003C08B4003D08B5003E084A
:10093800B6003F08B7004208B800B901BA01BB01C8
:100948003808B4043908B5043A08B6043B08B704B3
:100958004308193E840083130003FF3A083E013E12
:10096800BA2C0310B70CB60CB50CB40CFF3E031D23
:10097800B52C3708B3003608B2003508B100340882
:10098800B000080083120313AE002E08A500250846
:10099800AB008B138710831603138710063083125E
:1009A8000313A6003030A500A50BD82CA60BD82C15
:1009B800000083120313871483160313871083120E
:1009C800031387108316031387141A308312031333
:1009D800A500A50BED2C0000831203138718F02C3B
:1009E800871CF42C8718F62CAD0105302D0203184E
:1009F8002A2DAC0108302C020318222D2D082B07B4
:100A0800A5002508840003108313800D871C0A2D78
:100A1800810187180D2D29300102031C1A2D2D087C
:100A28002B07A50025088400831300140130A500B6
:100A38002508AC0708302C02031C022D0130A50044
:100A48002508AD0705302D02031CFD2C8B172E0839
:100A5800023E840083130008A500A6012508A6000D
:100A6800A5012E08033E840000082507A7000030D2
:100A7800031801302607A8002E0884000008A500E6
:100A8800A6012508A600A5012E0A8400000825074E
:100A9800A9000030031801302607AA0008008312B5
:100AA8000313CB00C901AA30B0003008CA00C03017
:100AB8004A020318832D4A08B0003008A900AA0189
:100AC800AA0A4908333EB1003108AB004B08163E6C
:100AD800840083130008B2000310320C8A118A269E
:100AE8008A11013083120313B0003008C90701309E
:100AF800B0003008CA07C0304A02031C5F2D4B08FB
:100B08008400340883138000840A330880004B086B
:100B1800023E840036088000840A350880004B08AD
:100B2800043E840038088000840A370880004B0897
:100B3800063E84003A088000840A390880004B0881
:100B4800083E84003C088000840A3B0880004B086B
:100B58000A3E84003E088000840A3D0880004B0855
:100B68000C3E840040088000840A3F0880004B083F
:100B78000E3E840042088000840A410880004B0829
:100B8800103E840044088000840A430880004B0813
:100B9800123E840046088000840A450880004B08FD
:100BA800143E840048088000840A47088000080032
:100BB80083120313B800F430B2003208A9002E30B3
:100BC800B3003308AA003808163E840083130008CF
:100BD800B4000310340C8A15AD278A110D30831226
:100BE8000313B300FB30B200B20BF82DB30BF82D92
:100BF800FD2DF63083120313B2003208A900AA01B2
:100C0800AA0A3630B3003308AB003808163E840011
:100C180083130008B4000310340C8A118A268A1141
:100C2800F73083120313B2003208A900AA01AA0AF6
:100C38003730B3003308AB003808163E84008313FE
:100C48000008B4000310340C8A118A268312031397
:100C58003708B200B3013608B400B5013408B5004E
:100C6800B40132083404B00033083504B100080078
:100C7800F900F801FA010E307A0203184F2E0030FD
:100C88008A1556278A110130F7007708FA070E30BF
:100C98007A02031C432E01308A1556278A11063022
:100CA800F700F70B552E000055308A1514278A11C6
:100CB80001308A1514278A1179088A1514278A1190
:100CC80077308A1514278A11FA0179087A020318ED
:100CD8007C2E7A087607F7007708840083170008C7
:100CE8008A1514278A110130F7007708FA07692E48
:100CF80000308A1556278A1100308A1556278A111E
:100D08004230F700F70B862E000008008312031309
:100D1800AE008A15B5268A11831203132E08AC007B
:100D28002C07FE398A11AC278A118A15FF268A11E9
:100D38008312031329088A11AC278A118A15FF2602
:100D48008A118A15CD268A110314831203132E0DD6
:100D58008A11AC278A118A15FF268A118312031378
:100D6800AF012A082F020318CC2E8A1142278A11B4
:100D780083120313AC002F082B07AD002D08840045
:100D88002C08831380000130AC002C08AF07B52E67
:100D98008A15A9268A118A15C12608008312031309
:100DA800AC008A15D4278A1155308A110B278A116D
:100DB80083120313AD0108302D020318F72E2D08F6
:100DC8002C07A90029088400831300088A110B271F
:100DD8008A11013083120313A9002908AD070830CE
:100DE8002D02031CE32E44308A110B278A11083088
:100DF80083120313AB009D30AA000B30A900A90B86
:100E0800032FAA0B032FAB0B032F0A2F0800831203
:100E18000313A7008B13A801083028020318402FDA
:100E2800831603130710093083120313A500A50BBB
:100E38001B2F1E2F83120313271C252F8316031322
:100E480007141D308312A500A50B282F2B2F8316FE
:100E5800031307142F2F831203132708A500031069
:100E6800250CA6002608A7000130A5002508A8071C
:100E780008302802031C142F8B1708008312031351
:100E8800A7018B1383160313061306168312031385
:100E9800A801083028020318762F831603130617B3
:100EA80083120313061E692F0130A5002803FF3A99
:100EB800073E013E612F0310A50DFF3E031D5F2F66
:100EC80025082704A6002608A7008316031306137F
:100ED800013083120313A5002508A807083028024B
:100EE800031C512F8B172708080083120313A7012F
:100EF8008B13A601083026020318A92F0310A70C8C
:100F0800831603130710882F83160313071403305F
:100F180083120313A500A50B8F2F83120313071C3D
:100F28009A2F27088038A5002508A7002430A50097
:100F3800A50B9C2F0000013083120313A500250880
:100F4800A60708302602031C832F8B1727080800E2
:100F580083120313A7008B138316031306120613B9
:100F680083120313A801083028020318D82FA71FDB
:100F7800C02F831603130616831603130617C42FF0
:100F88008316031306130612831203132708A500FA
:100F98002507A6002608A7000130A5002508A807F0
:100FA80008302802031CBB2F8B1708008312031379
:100FB800B400D030B0003008A900AA01AA0A333022
:100FC800B1003108AB003408163E840083130008D2
:100FD800B2000310320C8A118A26831203133408D4
:100FE800183E840083130008B0003008B3000800DE
:060FF8008A157E260800A8
:101CFC0083120313071083160313071408008316AB
:101D0C0003138713831203138713080064008001E5
:101D1C00840A04060319003404068D2E831603135B
:101D2C00061606172B308312031394008C1108002F
:101D3C0083120313101410169016831603130C142D
:101D4C000B178B1708008B13831603130616061339
:101D5C000617B02E8316031306138B1708008B136C
:101D6C0083160313061606170612BC2E83160313CE
:101D7C0006138B1708008B13831603130612061712
:101D8C00C72E831603130616CB2E8B1708008B1346
:101D9C008316031306160617D32E83160313061287
:101DAC00D72E831603130613DB2E8B1708007E0821
:101DBC008A007F088200DD268A158000840A0408C8
:101DCC007D0603190034FF0A0319FE0AE12E703058
:101DDC00831603138F00831203179E019F01831236
:101DEC0003131F1083160313071383120313071314
:101DFC00080083120313A501A50A8B138316031382
:101E0C0006160617003083120313061A0130A500BC
:101E1C000F2F8316031306138B170800F400F5011C
:101E2C000830750203180800740880398A15562783
:101E3C008A157408F2007207F3007308F40001307D
:101E4C00F2007208F507162F8316031386138616F5
:101E5C008312031399019A01831603139B1118150E
:101E6C001812CF309900243098009030831203134D
:101E7C00980008002834693455345D340534003436
:101E8C0000347C340034003400340034003400342A
:101E9C000034003400340034003400340034003496
:101EAC00F1008312031387173530F000F00B5C2F11
:101EBC008312031387134230F000F00B632F0000E2
:101ECC007108031908002130F000F00B6B2F08008B
:101EDC0083160313871483120313871083160313BB
:101EEC008112011281110110811001110B3083122A
:101EFC000313A7002630A6006630A500A50B842F7F
:101F0C00A60B842FA70B842F8B2F08000C1CA22F41
:101F1C000130A0002008FC0714307C06031D9F2F05
:101F2C003A30A0002008F60028308A113C268A1589
:101F3C00FC01831203130C102408FF0023088A00F1
:101F4C0022088400210E8300FE0E7E0E09008312EF
:101F5C000313AC008A15B5268A15831203132C08BB
:101F6C00AB002B07FE398A11AC278A158A15FF2680
:101F7C008A158312031329088A11AC278A158A152E
:101F8C00FF268A15831203132A088A11AC278A1597
:101F9C008A15FF268A158A15C12608008312031399
:101FAC00A6018B130710831603130710F43083124A
:101FBC000313A5000000A50BE02FE42F00008316EF
:101FCC0003130714273083120313A500A50BEC2F62
:101FDC00EF2F831203130718F62FA601A60AF72F6B
:101FEC00A6018B17E030A5000000A50BFA2FFE2FE1
:041FFC0000000800D9
:02400E00E4F0DC
:00000001FF
